:060000000A128A1100291A
:100200002F2136212021A0010313831206180E216D
:100210008618172106292B21850A080006180E29A1
:10022000A00A200800228700A01BA0010800861851
:100230001729A003200800228700A01BA0010800A6
:100240000313831681128111011581140114031304
:1002500083122B210800E73081000B1108000313E3
:1002600083160F138F160F120F140800031783162F
:100270008801890103138316051085100511851166
:100280008701061486140313831285018701080071
:100400008A010A140F3982073F3406345B344F34B3
:1004100066346D347D3407347F346F3477347C3404
:0804200039345E347934713483
:04400E00C430FF3F7C
:00000001FF
