:060000000A128A1100291A
:1002000045214C213621A001031383120B190D2126
:100210000618142186181D2106294121850A050882
:100220000A3A03192621080006181429A00A2008F2
:1002300000228700A01BA001080086181D29A0032A
:10024000200800228700A01BA00108008501880A61
:10025000081A88010808200603192F2108008801C0
:1002600009183421091408000910062903138316FC
:10027000811281110115811401140313831241218C
:100280000800E73081000B110800031383160F13D9
:100290008F160F120F1408000317831688018901A7
:1002A000031383168501870188010910061486143B
:0E02B00003138312850187018801890108006C
:100400008A018A140F3982073F3406345B344F3433
:1004100066346D347D3407347F346F3477347C3404
:0804200039345E347934713483
:04400E00C430FF3F7C
:00000001FF
